:020000040800F2
:10000000F0040020A1010008C3170008BD16000875
:10001000C1170008E1020008151F000800000000D9
:10002000000000000000000000000000711900083E
:100030009104000800000000C517000873190008AB
:10004000BB010008BB010008BB010008BB010008A0
:10005000BB010008BB010008BB010008BB01000890
:10006000BB010008BB010008BB010008BB01000880
:10007000BB010008BB010008BB010008BB01000870
:10008000BB010008BB010008BB010008BB01000860
:10009000BB010008BB010008BB010008BB01000850
:1000A000BB010008BB010008BB010008BB01000840
:1000B000BB0100080000000000000000BB010008B8
:1000C000BB010008BB010008BB010008BB01000820
:1000D000BB010008BB010008BB010008BB01000810
:1000E000BB010008BB010008000000000000000088
:1000F0000000000000000000000000000000000000
:1001000000000000BB01000800000000BB01000867
:100110000000000000000000BB010008BB01000857
:10012000BB010008BB010008BB010008BB010008BF
:10013000BB010008000000000000000000000000FB
:10014000BB010008BB010008BB0100080000000063
:10015000BB010008BB010008BB010008BB0100088F
:10016000BB010008BB010008BB0100080000000043
:10017000BB010008BB0100080000000000000000F7
:10018000BB010008BB010008BB010008DFF80CD070
:1001900000F094F800480047ED200008F00400202B
:1001A0000648804706480047FEE7FEE7FEE7FEE711
:1001B000FEE7FEE7FEE7FEE7FEE7FEE7E5190008DB
:1001C0008D0100082DE9F05F0546002092469B4610
:1001D00088460646814640241BE02846414647465D
:1001E000224600F05AF853465A46C01A914110D39D
:1001F00011461846224600F041F82D1A67EB010817
:100200004F4622460120002100F038F817EB000984
:100210004E41201EA4F10104DFDC484631462A4647
:10022000434600F000B830BCBDE8C09FD2B201E048
:1002300000F8012B491EFBD270470022F6E710B5EB
:1002400013460A4604461946FFF7F0FF204610BD44
:1002500030B50B46014600202022012409E021FA96
:1002600002F59D4205D303FA02F5491B04FA02F593
:100270002844151EA2F10102F1DC30BD202A04DB66
:10028000203A00FA02F1002070479140C2F12003A9
:1002900020FA03F3194390407047202A04DB203AE8
:1002A00021FA02F00021704721FA02F3D040C2F196
:1002B000200291400843194670470000064C074D44
:1002C00006E0E06840F0010394E807009847103426
:1002D000AC42F6D3FFF75EFF84210008A42100089A
:1002E000FEE70000F0B585B014216846FFF7A5FFD2
:1002F000002702204FF400640126CDE90270CDE909
:1003000000464FF090456946284600F0EFF800227D
:100310002146284600F0E2F9122000F0D5F801222B
:100320002146284600F0DAF9142000F0B3F8142131
:100330006846FFF782FFCDE90047694628460296E6
:1003400000F0D4F82146284600F0BBF9142000F054
:10035000A1F82146284600F0B4F91C4E20BB2F46D8
:1003600025462146384600F0ACF908B1002408E0E3
:10037000012000F08FF8F3E7012000F08BF8641CF7
:10038000E4B22946384600F09CF9012801D1642CDA
:10039000F2D3002400F01CF83055641CE4B2052CA4
:1003A000F8D3322000F076F830787178F37842187C
:1003B000B1780B441A443379934204D1F071B1718E
:1003C000012005B0F0BD0020FBE700000000002088
:1003D0002DE9F0470024254626464FF400694FF0EA
:1003E000904804E0012000F055F86D1CEDB24F4636
:1003F0004946404600F065F908B9642DF2D300255E
:10040000282000F047F8B9463946404600F059F92F
:10041000012801D0002706E0012704E0012000F0B8
:1004200039F86D1CEDB24946404600F04AF9012802
:1004300001D1642DF2D36006761C0025F6B247EA9E
:100440001064082ED3D32046BDE8F08710B5FFF71F
:1004500049FF00280DD0074C07A0E279A17901F0EF
:100460005BFD6079401CC0B26071802801D3002020
:10047000607110BD0000002054656D703A20256445
:1004800020202048756D693A25640D0A000000009F
:100490007047000070B54FF6FA75094E281A84B2FD
:1004A00030684462304600F097FF306801E0416AEE
:1004B0008CB2AC42FBD3BDE87040014800F0B4BF41
:1004C0001C00002072B6FEE770B5044600F00CF97F
:1004D0000546601C02D004480078044400F004F98A
:1004E000401BA042FAD370BD080000202DE9F04F58
:1004F000DFF8AC9100230325A9F1040B85B04FF080
:10050000010C0F2709F1040AABF1040EBFE000BF94
:100510000CFA03F6324075D00C7904F00304012C78
:1005200001D0022C1BD1846800945C0005FA04F809
:100530000494009C24EA08040094D1F80C80049CE4
:1005400008FA04F8009C48EA0408C0F808804468E7
:10055000B4430E79C6F300169E40264346600C79DC
:10056000E443A4070AD0C4684FEA430805FA08F632
:10057000B4438E6806FA08F62643C6600C7904F088
:100580000304022C10D1DC0800EB84040294246ADA
:100590005E074FEAD66807FA08F6B4430E6906FA12
:1005A00008F62643029C266204684FEA430805FACF
:1005B00008F6B4430E7906F0030606FA08F6264359
:1005C00006604C6814F4403F60D0364C266E46F00E
:1005D00001062666246E23F0030604F0010400944D
:1005E000314C34440294A4689E074FEA167807FA07
:1005F00008F6B443B0F1904F05D02C4EB04204D170
:10060000012612E042E000260FE0294EB04201D15F
:1006100002260AE0274EB04201D1032605E0264E0D
:10062000B04201D1042600E0072606FA08F6264368
:10063000029CA660D9F800604C46D1F8048096432D
:100640005FEAC82800D516432660DAF8004056460F
:10065000D1F8048094435FEA882800D514433460BD
:10066000DBF800405E46D1F8048094435FEA8838A6
:1006700000D514433460DEF800407646D1F804809B
:1006800094435FEAC83800D5144334605B1C0A68A1
:1006900032FA03F47FF43CAF05B000F00FB800006D
:1006A000080401400010024000000140000400481E
:1006B00000080048000C00480010004830BCBDE8AD
:1006C000C08F0069084000D001207047426921EACC
:1006D00002030A4043EA0241816170470AB1816125
:1006E00070478162704700000148806870470000D1
:1006F0000800002002488168027811448160704738
:100700000800002010B50024032000F063F80F203B
:1007100000F008F808B1012401E000F025F82046B7
:1007200010BD000070B50E4E05460024307898B11B
:100730004FF47A71B1FBF0F00A490968B1FBF0F0AF
:1007400000F0BCFD40B9102D06D200222946501EF3
:1007500000F020F8756000E00124204670BD000024
:100760000800002014000020094808B5016E41F07F
:1007700001010166016E01F001010091816D41F0FE
:1007800080518165806D00F08050009008BD0000B0
:1007900000100240F0B40E4B1B680C46C3F302235A
:1007A000C3F10705042D00D90425191D072901D21D
:1007B000002300E0DB1E012606FA05F1491E214058
:1007C00099409E40761E16403143F0BC01F0B4BB08
:1007D0000CED00E0064900F0070208684FF6FF0341
:1007E000184040EA0220034A1043086070470000A6
:1007F0000CED00E00000FA051649B0F5007F08682E
:10080000C0F3412009D0022805D0086820F4C06058
:1008100040F480600860002070470128FBD0086821
:1008200020F4C06040F4007008600B483222006879
:1008300050430A4AB0FBF2F0401C00E0401E4A69F7
:10084000520501D50028F9D148694005E3D50320B8
:1008500070470000007000401400002040420F006C
:100860000248006800F4C06070470000007000405B
:100870002DE9F84F044600270088A84D3E460005A4
:1008800015D5606C60B1B0F5000F04D0B0F5400F25
:100890002BD001270AE0E86840F48030E86024E0CB
:1008A0000021201D00F090FF07001ED03E4620686A
:1008B00080033AD5A86D4FF00008C00009D4A86D98
:1008C00040F08050A865A86D4FF0010800F08050FE
:1008D0000090DFF84CA2DAF8001041F48071CAF8F9
:1008E0000010FFF701FF814610E0D5F88800616C29
:1008F00020F440000843C5F88800D8E7FFF7F4FE6D
:10090000A0EB0900022801D9032705E0DAF800006E
:10091000C005F3D5002F7DD04FEA0706B8F1000FD0
:1009200003D0A86D20F08050A8652078C00707D0BC
:10093000D5F88800216A20F003000843C5F8880034
:100940002078800707D5D5F88800616A20F00C0070
:100950000843C5F888002078400707D5D5F88800F7
:10096000A16A20F030000843C5F88800207880068E
:1009700007D5D5F88800E16A20F440600843C5F83F
:1009800088002088800507D5D5F88800E16B20F421
:1009900040200843C5F888002088400507D5D5F8D1
:1009A0008800216C20F440100843C5F888002078A6
:1009B000400607D5D5F88800216B20F44050084345
:1009C000C5F888002078000607D5D5F88800616B47
:1009D00020F440400843C5F888002088C00507D5AA
:1009E000D5F88800A16B20F440300843C5F8880092
:1009F00020684FF0006700034FF0806850D5D5F8AD
:100A00008800A16C20F040600843C5F88800A06C05
:100A1000B84200E005E03BD1E86840F48010E860AF
:100A20003EE0D5F8900010F4407014D0A16D8142E2
:100A300011D0D5F89000D5F8901020F4407041F412
:100A40008031C5F89010D5F8901021F48031C5F8A8
:100A50009010C5F89000C00711D0FFF745FE07467B
:100A600041F2883907E000BFFFF73EFEC11B494550
:100A700001D9032652E7D5F890008007F4D5D5F8C0
:100A80009000A16D20F440700843C5F8900045E740
:100A9000404505D10121201D00F096FE00B106461B
:100AA0002068400317D5D5F88800E16C20F040603D
:100AB0000843C5F88800E06CB84204D1E86840F407
:100AC0008010E86007E0404505D10121201D00F0BD
:100AD0007BFE00B106462088400411D5D5F8880079
:100AE000216D20F040500843C5F88800206DB0F11A
:100AF000805F05D10221201D00F066FE00B1064690
:100B00002088000406D555F8880F616D20F08040DC
:100B100008432860304600F005B80000001002408D
:100B20000070004018BCBDE8E08F00002DE9F047E0
:100B30000F4605006BD0494E306800F00700B84200
:100B400009D2306820F0070038433060306800F088
:100B50000700B8425BD12878414C80070AD5A868C5
:100B6000A16801F0F001884204D9A16821F0F001E8
:100B70000143A1602878C0072CD06868032811D0F1
:100B8000022812D0216898B1490500293FDAA168EE
:100B900021F003010143A160FFF7A6FD804641F269
:100BA000883910E021688901EFE721688903ECE7C3
:100BB0008907EAE7FFF798FDA0EB0801494502D94C
:100BC0000320BDE8F087A068696800F00C00B0EB76
:100BD000810FEFD1287880070AD5A868A16801F0B5
:100BE000F001884204D2A16821F0F0010143A16024
:100BF000306800F00700B8420BD9306820F00700D9
:100C000038433060306800F00700B84201D001205E
:100C1000D7E72878400705D5A068E96820F4E060A8
:100C20000843A0602878000706D5A068296920F449
:100C3000605040EAC100A06000F03EF8A168094A97
:100C4000C1F30311515C01F01F01C840064908605F
:100C500006480068BDE8F047FFF764BD0020024089
:100C6000001002403C210008140000200C0000206D
:100C70000548064900688968054AC1F30221515CAC
:100C800001F01F01C840704714000020001002400E
:100C90007C2100080548064900688968054AC1F3B7
:100CA000C221515C01F01F01C840704714000020B0
:100CB000001002407C21000870B525490023184629
:100CC0008A68CC6812F00C0204F00306214C4FEA4B
:100CD000640509D00C2A05D0042A32D0082A00D194
:100CE000284670BD012E10D10B681B0704D4D1F823
:100CF0009430C3F3032302E00B68C3F30313164ECF
:100D000056F82330DAB10C2AEBD1C86800F00300A2
:100D1000022818D0032818D01846CA68CB68C2F336
:100D20000212C3F306234343521CB3FBF2F2C8681A
:100D3000C0F34160401C4000B2FBF0F070BD1846AB
:100D400070BD204670BD2046E7E72846E5E7000075
:100D5000001002400024F4004C2100082DE9F84363
:100D600004006FD0FA4DA86800F00C06E86800F0A7
:100D700003072078C00664D576B10C2E01D1012F6F
:100D80000AD0A069002828687AD040F001002860C5
:100D9000FFF7AAFC80465DE02868800702D5A069BD
:100DA0000028DED0216A2868000703D5286800F0F3
:100DB000F00004E0D5F89400F02202EA101081421D
:100DC00016D9084600F096FD00283BD1286840F06F
:100DD000080028602868216A20F0F0000843286095
:100DE0006868E16920F47F4040EA0120686016E00D
:100DF000286840F0080028602868216A20F0F00088
:100E0000084328606868E16920F47F4040EA0120D7
:100E1000686026B9206A00F06DFD0028D5D1FFF783
:100E20004BFFA968CB4AC1F30311515C01F01F01CC
:100E3000C840C9490860C9480068FFF773FC00282A
:100E40007ED12EE0CAE000BFFFF74EFCA0EB080009
:100E5000022876D828688007F6D5286840F0080070
:100E600028602868216A20F0F0000843286068683C
:100E7000E16920F47F4040EA0120686011E0FFE76B
:100E800020F001002860FFF72FFC804606E000BF3D
:100E9000FFF72AFCA0EB08000228DAD828688007B0
:100EA000F6D42078C00740D0082E18D00C2E01D1DF
:100EB000032F14D06068B0F5803F17D0B0F5A02F95
:100EC000286817D020F480302860286820F480201B
:100ED00028606068E0B1FFF707FC804614E02868EE
:100EE000800322D56068002878D01EE0286840F48E
:100EF0008030EDE740F480202860F7E7FFF7F4FB4F
:100F0000A0EB08006428A4D828688003F6D50CE07C
:100F1000FFF7EAFB804605E0FFF7E6FBA0EB0800E1
:100F2000642896D828688003F6D4207880073BD5BB
:100F3000042E11D00C2E01D1022F0DD0E06801E05B
:100F4000AAE1FFE0002828681ED040F480702860E5
:100F5000FFF7CAFB07460CE0286840050CD5E0689F
:100F60000028C1D008E000BFFFF7BEFBC01B02286D
:100F700093D828684005F7D56868217C20F0F850A0
:100F800040EA016068600FE020F480702860FFF79D
:100F9000ABFB074605E000BFFFF7A6FBC01B02281E
:100FA000B1D828684005F7D42078000729D56069B2
:100FB0000028D5F8940012D040F00100C5F8940044
:100FC000FFF792FB074604E0FFF78EFBC01B0228E9
:100FD00099D8D5F894008007F6D512E02BE120F0DF
:100FE0000100C5F89400FFF77FFB074605E000BF4E
:100FF000FFF77AFBC01B022885D8D5F8940080073C
:10100000F6D42078400766D5A86D0027C00008D424
:10101000A86D40F08050A865A86D012700F08050B1
:1010200000904F480168C90512D40168814641F417
:1010300080710160FFF758FB804605E0FFF754FB25
:10104000A0EB080002287DD8D9F80000C005F5D52E
:10105000A068012816D00528D5F8900017D020F0F8
:101060000100C5F89000D5F8900020F0040000BF02
:10107000C5F89000A06841F28839C0B1FFF734FB91
:1010800080460FE0D5F8900040F00100F0E740F016
:101090000400C5F89000F5E7FFF726FBA0EB080178
:1010A00049454FD8D5F890008007F5D50EE0FFF7F9
:1010B0001BFB804606E000BFFFF716FBA0EB080114
:1010C00049453FD8D5F890008007F5D41FB1A86DE9
:1010D00020F08050A8652078800628D5606A002816
:1010E000D5F8980012D040F00100C5F89800FFF73D
:1010F000FBFA074605E000BFFFF7F6FAC01B02281F
:1011000020D8D5F898008007F6D510E020F001002F
:10111000C5F89800FFF7E8FA074604E0FFF7E4FA9D
:10112000C01B02280ED8D5F898008007F6D4A06A14
:10113000F0B3022816D00C2E7DD0286820F08070E5
:10114000286000E0A7E0FFF7CFFA0446A6E0000021
:10115000001002403C210008140000200C00002078
:1011600000700040E868E26A00F00301914228D173
:10117000216B00F0700209011039914221D1626B9C
:1011800000F4FE41B1EB022F1BD194F8382000F09F
:101190007841B1EBC26F14D1A18F00F4C0024908AD
:1011A0004905A1F5001191420BD194F8401000E0DF
:1011B0006AE04908490600F0C060A1F1007181426F
:1011C0004BD00C2E73D02868400170D4286820F0D2
:1011D00080702860FFF788FA064604E0FFF784FA7B
:1011E000801B022857D828688001F7D4F4E90B0146
:1011F0006FF00F0202EB01110843218A52044908E3
:1012000002EB4151A26841EA02210843217D4FF0DF
:101210007E42490802EB41610843217B40EAC160FC
:10122000E968244A11400843E860286840F080706B
:101230002860E86800E03AE040F08070E860FFF77E
:1012400053FA044605E000BFFFF74EFA001B0228E0
:1012500021D828688001F7D527E02868800124D4A8
:10126000286840F080702860E86840F08070E8608E
:10127000FFF73AFA044604E0FFF736FA001B0228AB
:1012800009D828688001F7D50FE000BFFFF72CFAD6
:10129000001B022802D90320BDE8F88328688001DA
:1012A000F4D4E86804490840E8600020F4E701202D
:1012B000F2E700008C809D01FCFFEEFE10B5401EA1
:1012C000B0F1807F01D3012010BD4FF0E0246061B8
:1012D0000F21601700F030FE0020A0610720206180
:1012E000002010BDF0B590F83C20012A29D001243F
:1012F00080F83C40022280F83D2003685A689D68CF
:10130000114EB34203D122F470074A683A4322F0E7
:1013100070070A683A435A600268B24205D0B2F1D7
:10132000804F02D0094B9A4204D1896825F080038E
:101330001943916080F83D40002180F83C10084638
:10134000F0BD0220F0BD0000002C01400040014033
:1013500010B5040003D094F83D0010B107E001205F
:1013600010BD002084F83C00204600F023F8022045
:1013700084F83D00211D206800F03CFB012084F82A
:10138000480084F83E0084F83F0084F8400084F868
:10139000410084F8420084F8430084F8440084F853
:1013A000450084F8460084F8470084F83D0000209A
:1013B00010BD000008B50068B0F1804F08D10548A5
:1013C000816D41F001018165806D00F001000090A8
:1013D00008BD00000010024090F83D10012901D026
:1013E00001207047022180F83D1000680B498842B7
:1013F00005D0B0F1804F02D00949884207D18168F9
:10140000084A1140062906D0B1F5803F03D0016893
:1014100041F001010160002070470000002C0140F4
:10142000004001400700010001680A6A41F21113FF
:101430001A4207D10A6A9B101A4203D10A6822F0A5
:1014400001020A60012180F83D1000207047000071
:1014500070B5044690F83C000025012817D00126FD
:1014600084F83C60022084F83D00226890682F4B8D
:10147000184020F47F4090600868502838D00DDC78
:1014800020284FD005DC90B3102811D14AE002206B
:1014900070BD302846D040280AD13BE060282FD0CC
:1014A00070280DD0B0F5805F03D0B0F5005F12D08A
:1014B000012584F83D60002084F83C00284670BD7A
:1014C000CB68D1E90121206800F0CAFA2068816860
:1014D00041F0770109E0CB68D1E90121206800F0F3
:1014E000BFFA2068816841F480418160E1E719E03A
:1014F000CA684968206800F0C5FA5021206806E0F3
:10150000CA684968206800F0CEFA6021206800F0BF
:10151000B1FACEE7CA684968206800F0B3FA402102
:101520002068F4E7226801461046F0E788FFFEFFD6
:1015300010B5040002D0E06F10B107E0012010BD2B
:10154000002084F87800204600F026F82420E06788
:101550002068016821F001010160606A10B1204635
:1015600000F0B3FA204600F08FFB0128E7D0206896
:10157000416821F4904141602068816821F02A018E
:1015800081602068016841F0010101602046BDE8EA
:10159000104000F0FEBA000010B59EB004461421C1
:1015A00017A8FEF74AFE5C216846FEF746FE18497A
:1015B0002068884229D101200024009008946846C0
:1015C000FFF756F908B1FEF77DFF1248016E41F4AE
:1015D00080410166016E01F480411C91C16C41F0B3
:1015E0000101C164C06C17A900F001001C904FF408
:1015F000C06017900220CDE9180403201A9007203C
:101600001B904FF09040FEF771FF1EB010BD000020
:1016100000380140001002402DE9F8430446C06F35
:10162000984616460D46202802D00220BDE8F883D1
:1016300095B18EB10020C4F884002120E067FFF747
:1016400053F8A4F850608146A4F85260A06820279F
:10165000B0F5805F02D003E00120E7E7206910B118
:101660002E46002510E000260EE08021204600F0E6
:101670000BFCC0B9D6B116F8010B21680885B4F887
:101680005200401EA4F85200B4F852004B464FF0EE
:101690000002CDF800800028E7D14FF0400120463D
:1016A00000F0F2FB38B1E7670320BFE735F8020B23
:1016B000C0F30800E1E7E7670020B7E7FEE70000B6
:1016C00030B587B014216846FEF7B7FD1248C16CEB
:1016D00041F08001C164C16C01F080010591C16CD1
:1016E00041F00101C164C06C4FF4006400F00100DE
:1016F0004FF090450590002221462846FEF7EEFF68
:10170000012000210094CDE901010391694628469A
:10171000FEF7ECFE07B030BD0010024010B588B0F7
:1017200000241748009401940294039404940594AF
:101730004FF08041069401604F21C0E901144FF63B
:10174000FF71C0E903148461FFF702FE08B1FEF7E0
:10175000B9FE4FF48050009069460948FFF778FEC3
:1017600008B1FEF7AFFE049404A905480694FFF7FC
:10177000B9FD002801D0FEF7A5FE08B010BD00009D
:101780001C0000200D4810B50B4901604FF4E131F9
:101790004160002181600C22C160C0E904128161B6
:1017A000C16101624162FFF7C3FE002803D0BDE8BA
:1017B0001040FEF787BE10BD0038014068000020D1
:1017C000FEE7FEE7704700002DE9F041444C054676
:1017D0008846E0680026810728680DD0E16801F09E
:1017E0000301814216D1A8B1E0686968C0F3021014
:1017F000401C88420ED120E0012804D0022805D0E8
:10180000032807D108E02168890701E0216849051C
:10181000002907DB01265FE02168890302D42168E3
:101820004903F5E7E1686A686FF00F0321F073017F
:1018300003EB021211430143E160206820F0806055
:101840002060FEF751FF074605E000BFFEF74CFFA2
:10185000C01B022837D820680001F7D4B8F1000F68
:1018600018D0B8F1010F1DD0287D4FF07E414008FF
:1018700001EB4060A96840EA01202169194A114042
:1018800008432061206840F080602060FEF72CFF54
:1018900007461AE0A868297B000240EAC160216976
:1018A000114AECE7288A1149400801EB4050A96829
:1018B00040EA012021690E4AE1E700BFFEF714FF6C
:1018C000C01B022801D9032606E020680001F5D5D7
:1018D0002069A969084320613046BDE8F081000015
:1018E00000100240FF80FFF9FF80FF070000E0FFCB
:1018F000FF809FFFF8B51C4D06460024A86DC00070
:1019000002D5FEF7ADFF0DE0A86D40F08050A86550
:10191000A86D00F080500090FEF7A2FFA96D21F0A5
:101920008051A965B0F5007F04D0802E07D94FF013
:1019300003040AE0802E08D9A02E01D804E001D1CA
:10194000022402E0702E00D101240848016821F031
:10195000070121430160006800F00700A04201D0A8
:101960000120F8BD0020F8BD001002400020024018
:101970007047FEF7BFBE10B596B044216846FEF72B
:101980005CFC142111A8FEF758FC4FF40070FEF720
:1019900033FF08B172B6FEE701210804CDE900105B
:1019A000022003240A90CDE90B4114210D91072157
:1019B000CDE90E1010906846FFF7D0F908B172B665
:1019C000FEE70F20CDE9110400201390149015902C
:1019D000042111A8FFF7AAF8002801D072B6FEE78B
:1019E00016B010BD0248016841F4700101607047F3
:1019F00088ED00E070B50268164B4FF080469842C3
:101A000001D0B04203D122F070044A682243124C44
:101A1000124D984205D0B04203D0A04201D0A84256
:101A200003D122F44076CA6832434E6922F0800224
:101A3000324302608A68C2620A688262984203D0B6
:101A4000A04201D0A84201D109690163012141618D
:101A500070BD0000002C01400040014000440140E6
:101A600010B5846842EA032224F47F440A432243E7
:101A7000826010BD826822F070020A4342F00701C2
:101A80008160704710B5036A046A24F0010404629F
:101A9000846924F0F00444EA021423F00A020A43A1
:101AA0008461026210BD10B5036A046A24F0100458
:101AB0000462846923F0A00324F4704444EA0232EF
:101AC00043EA01118261016210BD90F824100907F8
:101AD00006D501684A68436B22F400421A434A6003
:101AE00090F82410C90706D001684A68836A22F476
:101AF00000321A434A6090F82410890706D501681D
:101B00004A68C36A22F480321A434A6090F824106B
:101B1000490706D501684A68036B22F480221A43FC
:101B20004A6090F82410C90606D501688A68836B5C
:101B300022F480521A438A6090F82410890606D550
:101B400001688A68C36B22F400521A438A6090F8D5
:101B50002410490611D501684A68036C22F48012EA
:101B60001A434A60016CB1F5801F06D101684A68CA
:101B7000436C22F4C0021A434A6090F8241009060C
:101B800006D501684A68806C22F4002202434A604C
:101B900070472DE9F84300260446C0F88460FEF73C
:101BA000A3FD8046206800684FF0200500076FF015
:101BB0007E4712D54346002229042046009700F0B4
:101BC00063F950B1216851E8000F20F0800041E82E
:101BD0000002002AF6D1E56721E02068006840078E
:101BE00022D5434600224FF480012046009700F0A2
:101BF0004BF9C8B1216851E8000F20F4907041E81A
:101C00000002002AF6D12068083050E8001F21F0B9
:101C1000010140E80012002AF5D1C4F8805084F890
:101C200078600320BDE8F883E567C4F8805044F885
:101C3000606F666026760020F4E7016851E8002FA7
:101C400022F4907241E80023002BF6D1016808319C
:101C500051E8002F22F0010241E80023002BF5D1CA
:101C6000016E012908D1026852E8001F21F010011D
:101C700042E80013002BF6D12021C0F8801000218B
:101C800001668166704700002DE9F0410446016855
:101C900080682269E3691043626900251A43104392
:101CA000714F0A68714B1A4002430A60206841680C
:101CB000E26821F44051114341602168A069B942B2
:101CC00001D0226A10438A6822F4306202438A609B
:101CD0006749236867488B420DD1D0F8880010F01F
:101CE000030006D0012847D0022843D0032830D172
:101CF00044E001212EE060498B420BD1D0F88800EE
:101D000010F00C0034D0042836D0082832D00C282B
:101D10001FD133E059498B420BD1D0F8880010F025
:101D2000300025D0102827D0202823D0302810D1EB
:101D300024E0BB420DD1D0F8880010F4406017D0E9
:101D4000B0F5806F18D0B0F5006F13D0B0F5406FCC
:101D500014D010214A4A00264FF40040BB422FD134
:101D600071B102290FD004290FD0082973D10FE0D7
:101D70000021EFE70221EDE70421EBE70821E9E785
:101D8000FEF776FF03E0104602E0FEF795FFE8B3AA
:101D9000626802EB420181425DD8B0EB023F5AD843
:101DA000010E03025008181871410023FEF70AFAC9
:101DB000344AA0F5407191424DD82168C8604BE08B
:101DC000E3694FF6EF77834228D1092943D2DFE850
:101DD00001F005080B420D4242421000FEF748FF99
:101DE00006E0FEF757FF03E0104602E0FEF764FF4F
:101DF00060B14100606801EB5001B1FBF0F0A0F16F
:101E00001001B94227D84FF6F07100E024E00140FC
:101E1000C0F3420001432068C1601DE009291AD2C5
:101E2000DFE801F005080B190D1919191000FEF76C
:101E30001FFF06E0FEF72EFF03E0104602E0FEF76C
:101E40003BFF48B1616800EB5100B0FBF1F0A0F13D
:101E50001001B94205D90125A6662846E666BDE807
:101E6000F08180B2A9E7000000800040F369FFEF35
:101E7000003801400010024000440040004800408B
:101E80000024F400FFFC0F002DE9F04799461746A7
:101E90000E4604464FF00008089D2FE0681C2DD028
:101EA000FEF722FCA0EB0900A84214D89DB12068DF
:101EB0000168490722D5C169C94309070DD408251E
:101EC00005622046FFF7B9FEC4F8845084F8788094
:101ED0000120BDE8F0870320FBE7C069C04300058F
:101EE0000CD421684FF4006008622046FFF7A5FE7D
:101EF0002020C4F8840084F87880ECE72068C0696A
:101F000036EA000004D00020B842C7D00020E0E745
:101F10000120F9E7FEE700000FB4054B10B503A957
:101F2000044A029800F028F810BC5DF814FB000089
:101F3000D5200008180000200907090E002804DB3E
:101F400000F1E02080F80014704700F00F0000F16D
:101F5000E02080F8141D704702E008C8121F08C175
:101F6000002AFAD170477047002001E001C1121F1A
:101F7000002AFBD1704700002DE9FF4F89B09B4636
:101F80000446002506E025280BD05A460B999047B9
:101F9000641C6D1C20780028F5D10DB0284600F097
:101FA00095B80027B8460122474900E0074314F8D6
:101FB000013F203B02FA03F00842F7D120782E2897
:101FC00019D114F8010F47F004072A280ED06FF03A
:101FD0002F022078A0F1300109290CD808EB8801E4
:101FE00002EB410100EB0108641CF2E70A98641C53
:101FF00050F8048B0A9020780028CED0642808D0AE
:10200000692806D075281ED05A460B9990476D1C3A
:1020100058E00A994FF00A0901C90A91002802DA2A
:1020200040422D2102E0390504D52B218DF82010E6
:10203000012103E0F90704D02021F7E78A4608AE22
:102040000DE00021FAE70A994FF00A0901C90A9147
:10205000F7E74946FEF7FCF8303106F8011D002885
:10206000F7D1ADEB060000F12009780701D44FF05D
:102070000108C84502DDA8EB090000E00020804609
:10208000002706E008A85A46C05D0B9990476D1CD2
:102090007F1C5745F6DB04E030205A460B999047E9
:1020A0006D1CB8F10001A8F10108F5DC05E016F897
:1020B000010B5A460B9990476D1CB9F10001A9F12B
:1020C0000109F4DC641C65E70928010030BCBDE8A7
:1020D000C08F000013B54FF6FF7301226946024816
:1020E000FFF79AFA00981CBD68000020FEF70AFB73
:1020F000FFF741FCFFF7E4FAFFF744FBFFF70EFBA5
:102100000AA0FFF709FF0C4D4FF400544FF47A7604
:1021100021462846FEF7DAFAC820FEF7D5F9FEF781
:1021200095F93046FEF7D0F9F2E7000048656C6C8F
:102130006F20576F726C64000008004800000000B8
:10214000000000000102030406070809A086010040
:10215000400D0300801A060000350C0040420F00BD
:1021600080841E0000093D0000127A000024F40063
:1021700000366E010048E801006CDC02000000003F
:1021800001020304A4210008000000201C0000003C
:10219000581F0008C02100081C000020D4040000C3
:1021A000681F00080000000000000000010000009F
:1021B000100000000000000000093D0000000000C9
:040000050800018D61
:00000001FF
